{
  "_format": "hh-sol-artifact-1",
  "contractName": "RealEstateMarketPlace",
  "sourceName": "contracts/RealEstateMarketPlace.sol",
  "abi": [
    {
      "anonymous": false,
      "inputs": [
        {
          "indexed": false,
          "internalType": "uint256",
          "name": "propertyId",
          "type": "uint256"
        },
        {
          "indexed": false,
          "internalType": "address",
          "name": "owner",
          "type": "address"
        },
        {
          "indexed": false,
          "internalType": "uint256",
          "name": "price",
          "type": "uint256"
        },
        {
          "indexed": false,
          "internalType": "uint256",
          "name": "rent",
          "type": "uint256"
        }
      ],
      "name": "PropertyAdded",
      "type": "event"
    },
    {
      "anonymous": false,
      "inputs": [
        {
          "indexed": false,
          "internalType": "uint256",
          "name": "propertyId",
          "type": "uint256"
        },
        {
          "indexed": false,
          "internalType": "address",
          "name": "tenant",
          "type": "address"
        },
        {
          "indexed": false,
          "internalType": "uint256",
          "name": "rent",
          "type": "uint256"
        }
      ],
      "name": "PropertyRented",
      "type": "event"
    },
    {
      "anonymous": false,
      "inputs": [
        {
          "indexed": false,
          "internalType": "uint256",
          "name": "propertyId",
          "type": "uint256"
        },
        {
          "indexed": false,
          "internalType": "address",
          "name": "buyer",
          "type": "address"
        },
        {
          "indexed": false,
          "internalType": "uint256",
          "name": "price",
          "type": "uint256"
        }
      ],
      "name": "PropertySold",
      "type": "event"
    },
    {
      "anonymous": false,
      "inputs": [
        {
          "indexed": false,
          "internalType": "uint256",
          "name": "userId",
          "type": "uint256"
        },
        {
          "indexed": false,
          "internalType": "address",
          "name": "walletAddress",
          "type": "address"
        }
      ],
      "name": "UserRegistered",
      "type": "event"
    },
    {
      "inputs": [
        {
          "internalType": "string",
          "name": "uri",
          "type": "string"
        },
        {
          "internalType": "uint256",
          "name": "price",
          "type": "uint256"
        },
        {
          "internalType": "uint256",
          "name": "rent",
          "type": "uint256"
        }
      ],
      "name": "addProperty",
      "outputs": [],
      "stateMutability": "nonpayable",
      "type": "function"
    },
    {
      "inputs": [],
      "name": "availableProperties",
      "outputs": [
        {
          "components": [
            {
              "internalType": "uint256",
              "name": "id",
              "type": "uint256"
            },
            {
              "internalType": "address payable",
              "name": "owner",
              "type": "address"
            },
            {
              "internalType": "string",
              "name": "uri",
              "type": "string"
            },
            {
              "internalType": "uint256",
              "name": "price",
              "type": "uint256"
            },
            {
              "internalType": "uint256",
              "name": "rent",
              "type": "uint256"
            },
            {
              "internalType": "enum RealEstateMarketPlace.PropertyStatus",
              "name": "status",
              "type": "uint8"
            }
          ],
          "internalType": "struct RealEstateMarketPlace.Property[]",
          "name": "",
          "type": "tuple[]"
        }
      ],
      "stateMutability": "view",
      "type": "function"
    },
    {
      "inputs": [
        {
          "internalType": "uint256",
          "name": "propertyId",
          "type": "uint256"
        }
      ],
      "name": "buyProperty",
      "outputs": [],
      "stateMutability": "payable",
      "type": "function"
    },
    {
      "inputs": [],
      "name": "getMyProperties",
      "outputs": [
        {
          "components": [
            {
              "internalType": "uint256",
              "name": "id",
              "type": "uint256"
            },
            {
              "internalType": "address payable",
              "name": "owner",
              "type": "address"
            },
            {
              "internalType": "string",
              "name": "uri",
              "type": "string"
            },
            {
              "internalType": "uint256",
              "name": "price",
              "type": "uint256"
            },
            {
              "internalType": "uint256",
              "name": "rent",
              "type": "uint256"
            },
            {
              "internalType": "enum RealEstateMarketPlace.PropertyStatus",
              "name": "status",
              "type": "uint8"
            }
          ],
          "internalType": "struct RealEstateMarketPlace.Property[]",
          "name": "",
          "type": "tuple[]"
        }
      ],
      "stateMutability": "view",
      "type": "function"
    },
    {
      "inputs": [
        {
          "internalType": "uint256",
          "name": "propertyId",
          "type": "uint256"
        }
      ],
      "name": "getProperty",
      "outputs": [
        {
          "components": [
            {
              "internalType": "uint256",
              "name": "id",
              "type": "uint256"
            },
            {
              "internalType": "address payable",
              "name": "owner",
              "type": "address"
            },
            {
              "internalType": "string",
              "name": "uri",
              "type": "string"
            },
            {
              "internalType": "uint256",
              "name": "price",
              "type": "uint256"
            },
            {
              "internalType": "uint256",
              "name": "rent",
              "type": "uint256"
            },
            {
              "internalType": "enum RealEstateMarketPlace.PropertyStatus",
              "name": "status",
              "type": "uint8"
            }
          ],
          "internalType": "struct RealEstateMarketPlace.Property",
          "name": "",
          "type": "tuple"
        }
      ],
      "stateMutability": "view",
      "type": "function"
    },
    {
      "inputs": [
        {
          "internalType": "address",
          "name": "userAddress",
          "type": "address"
        }
      ],
      "name": "getUserByAddress",
      "outputs": [
        {
          "internalType": "bool",
          "name": "exists",
          "type": "bool"
        },
        {
          "internalType": "uint256",
          "name": "propertyCount",
          "type": "uint256"
        }
      ],
      "stateMutability": "view",
      "type": "function"
    },
    {
      "inputs": [
        {
          "internalType": "uint256",
          "name": "",
          "type": "uint256"
        }
      ],
      "name": "properties",
      "outputs": [
        {
          "internalType": "uint256",
          "name": "id",
          "type": "uint256"
        },
        {
          "internalType": "address payable",
          "name": "owner",
          "type": "address"
        },
        {
          "internalType": "string",
          "name": "uri",
          "type": "string"
        },
        {
          "internalType": "uint256",
          "name": "price",
          "type": "uint256"
        },
        {
          "internalType": "uint256",
          "name": "rent",
          "type": "uint256"
        },
        {
          "internalType": "enum RealEstateMarketPlace.PropertyStatus",
          "name": "status",
          "type": "uint8"
        }
      ],
      "stateMutability": "view",
      "type": "function"
    },
    {
      "inputs": [],
      "name": "registerUser",
      "outputs": [],
      "stateMutability": "nonpayable",
      "type": "function"
    },
    {
      "inputs": [
        {
          "internalType": "uint256",
          "name": "propertyId",
          "type": "uint256"
        }
      ],
      "name": "rentProperty",
      "outputs": [],
      "stateMutability": "payable",
      "type": "function"
    },
    {
      "inputs": [
        {
          "internalType": "uint256",
          "name": "",
          "type": "uint256"
        }
      ],
      "name": "userAddressById",
      "outputs": [
        {
          "internalType": "address",
          "name": "",
          "type": "address"
        }
      ],
      "stateMutability": "view",
      "type": "function"
    },
    {
      "inputs": [
        {
          "internalType": "address",
          "name": "",
          "type": "address"
        },
        {
          "internalType": "uint256",
          "name": "",
          "type": "uint256"
        }
      ],
      "name": "userProperties",
      "outputs": [
        {
          "internalType": "uint256",
          "name": "",
          "type": "uint256"
        }
      ],
      "stateMutability": "view",
      "type": "function"
    },
    {
      "inputs": [
        {
          "internalType": "address",
          "name": "",
          "type": "address"
        }
      ],
      "name": "users",
      "outputs": [
        {
          "internalType": "uint256",
          "name": "id",
          "type": "uint256"
        },
        {
          "internalType": "address",
          "name": "walletAddress",
          "type": "address"
        }
      ],
      "stateMutability": "view",
      "type": "function"
    }
  ],
  "bytecode": "0x608060405234801561001057600080fd5b506125c0806100206000396000f3fe6080604052600436106100a75760003560e01c80636fa830a6116100645780636fa830a6146101d15780639d36ab6c146101ed578063a87430ba14610209578063c5543fae14610247578063e2271c9f14610270578063f7b10808146102ad576100a7565b806316bb7c6f146100ac57806332665ffb146100d7578063397f7952146101145780634aed47cf1461013f5780634d3820eb1461017c57806369c212f614610193575b600080fd5b3480156100b857600080fd5b506100c16102ef565b6040516100ce9190611a5d565b60405180910390f35b3480156100e357600080fd5b506100fe60048036038101906100f99190611abf565b6105d6565b60405161010b9190611b75565b60405180910390f35b34801561012057600080fd5b50610129610743565b6040516101369190611a5d565b60405180910390f35b34801561014b57600080fd5b5061016660048036038101906101619190611abf565b6109a2565b6040516101739190611bb8565b60405180910390f35b34801561018857600080fd5b506101916109d5565b005b34801561019f57600080fd5b506101ba60048036038101906101b59190611bff565b610bc5565b6040516101c8929190611c56565b60405180910390f35b6101eb60048036038101906101e69190611abf565b610c6d565b005b61020760048036038101906102029190611abf565b610fe8565b005b34801561021557600080fd5b50610230600480360381019061022b9190611bff565b611286565b60405161023e929190611c7f565b60405180910390f35b34801561025357600080fd5b5061026e60048036038101906102699190611ddd565b6112ca565b005b34801561027c57600080fd5b5061029760048036038101906102929190611e4c565b61152d565b6040516102a49190611e8c565b60405180910390f35b3480156102b957600080fd5b506102d460048036038101906102cf9190611abf565b61155e565b6040516102e696959493929190611f0f565b60405180910390f35b606060006004549050600080600190505b828111610377576000600281111561031b5761031a6118c7565b5b60008083815260200190815260200160002060050160009054906101000a900460ff1660028111156103505761034f6118c7565b5b0361036457818061036090611fa6565b9250505b808061036f90611fa6565b915050610300565b5060008167ffffffffffffffff81111561039457610393611cb2565b5b6040519080825280602002602001820160405280156103cd57816020015b6103ba611753565b8152602001906001900390816103b25790505b509050600080600190505b8481116105cb57600060028111156103f3576103f26118c7565b5b60008083815260200190815260200160002060050160009054906101000a900460ff166002811115610428576104276118c7565b5b036105b8576000808281526020019081526020016000206040518060c0016040529081600082015481526020016001820160009054906101000a900473ffffffffffffffffffffffffffffffffffffffff1673ffffffffffffffffffffffffffffffffffffffff1673ffffffffffffffffffffffffffffffffffffffff1681526020016002820180546104ba9061201d565b80601f01602080910402602001604051908101604052809291908181526020018280546104e69061201d565b80156105335780601f1061050857610100808354040283529160200191610533565b820191906000526020600020905b81548152906001019060200180831161051657829003601f168201915b5050505050815260200160038201548152602001600482015481526020016005820160009054906101000a900460ff166002811115610575576105746118c7565b5b6002811115610587576105866118c7565b5b8152505083838151811061059e5761059d61204e565b5b602002602001018190525081806105b490611fa6565b9250505b80806105c390611fa6565b9150506103d8565b508194505050505090565b6105de611753565b6000808381526020019081526020016000206040518060c0016040529081600082015481526020016001820160009054906101000a900473ffffffffffffffffffffffffffffffffffffffff1673ffffffffffffffffffffffffffffffffffffffff1673ffffffffffffffffffffffffffffffffffffffff16815260200160028201805461066b9061201d565b80601f01602080910402602001604051908101604052809291908181526020018280546106979061201d565b80156106e45780601f106106b9576101008083540402835291602001916106e4565b820191906000526020600020905b8154815290600101906020018083116106c757829003601f168201915b5050505050815260200160038201548152602001600482015481526020016005820160009054906101000a900460ff166002811115610726576107256118c7565b5b6002811115610738576107376118c7565b5b815250509050919050565b60606000600360003373ffffffffffffffffffffffffffffffffffffffff1673ffffffffffffffffffffffffffffffffffffffff16815260200190815260200160002090506000818054905067ffffffffffffffff8111156107a8576107a7611cb2565b5b6040519080825280602002602001820160405280156107e157816020015b6107ce611753565b8152602001906001900390816107c65790505b50905060005b8280549050811015610999576000808483815481106108095761080861204e565b5b906000526020600020015481526020019081526020016000206040518060c0016040529081600082015481526020016001820160009054906101000a900473ffffffffffffffffffffffffffffffffffffffff1673ffffffffffffffffffffffffffffffffffffffff1673ffffffffffffffffffffffffffffffffffffffff16815260200160028201805461089d9061201d565b80601f01602080910402602001604051908101604052809291908181526020018280546108c99061201d565b80156109165780601f106108eb57610100808354040283529160200191610916565b820191906000526020600020905b8154815290600101906020018083116108f957829003601f168201915b5050505050815260200160038201548152602001600482015481526020016005820160009054906101000a900460ff166002811115610958576109576118c7565b5b600281111561096a576109696118c7565b5b815250508282815181106109815761098061204e565b5b602002602001018190525080806001019150506107e7565b50809250505090565b60026020528060005260406000206000915054906101000a900473ffffffffffffffffffffffffffffffffffffffff1681565b6000600160003373ffffffffffffffffffffffffffffffffffffffff1673ffffffffffffffffffffffffffffffffffffffff1681526020019081526020016000206000015414610a5a576040517f08c379a0000000000000000000000000000000000000000000000000000000008152600401610a51906120c9565b60405180910390fd5b60056000815480929190610a6d90611fa6565b91905055506000600554905060405180604001604052808281526020013373ffffffffffffffffffffffffffffffffffffffff16815250600160003373ffffffffffffffffffffffffffffffffffffffff1673ffffffffffffffffffffffffffffffffffffffff1681526020019081526020016000206000820151816000015560208201518160010160006101000a81548173ffffffffffffffffffffffffffffffffffffffff021916908373ffffffffffffffffffffffffffffffffffffffff160217905550905050336002600083815260200190815260200160002060006101000a81548173ffffffffffffffffffffffffffffffffffffffff021916908373ffffffffffffffffffffffffffffffffffffffff1602179055507fb442efe467d2ef30e62927a3cae0afcbc799a8a0944d8a143332e4e5e51cee5d8133604051610bba929190611c7f565b60405180910390a150565b6000806000600160008573ffffffffffffffffffffffffffffffffffffffff1673ffffffffffffffffffffffffffffffffffffffff1681526020019081526020016000206000015414610c6057600360008473ffffffffffffffffffffffffffffffffffffffff1673ffffffffffffffffffffffffffffffffffffffff16815260200190815260200160002080549050905060019150610c68565b600080915091505b915091565b6000600160003373ffffffffffffffffffffffffffffffffffffffff1673ffffffffffffffffffffffffffffffffffffffff1681526020019081526020016000206000015403610cf2576040517f08c379a0000000000000000000000000000000000000000000000000000000008152600401610ce990612135565b60405180910390fd5b6000806000838152602001908152602001600020905060006002811115610d1c57610d1b6118c7565b5b8160050160009054906101000a900460ff166002811115610d4057610d3f6118c7565b5b14610d80576040517f08c379a0000000000000000000000000000000000000000000000000000000008152600401610d77906121a1565b60405180910390fd5b80600301543414610dc6576040517f08c379a0000000000000000000000000000000000000000000000000000000008152600401610dbd9061220d565b60405180910390fd5b8060010160009054906101000a900473ffffffffffffffffffffffffffffffffffffffff1673ffffffffffffffffffffffffffffffffffffffff166108fc82600301549081150290604051600060405180830381858888f19350505050158015610e34573d6000803e3d6000fd5b5060008160010160009054906101000a900473ffffffffffffffffffffffffffffffffffffffff169050338260010160006101000a81548173ffffffffffffffffffffffffffffffffffffffff021916908373ffffffffffffffffffffffffffffffffffffffff16021790555060018260050160006101000a81548160ff02191690836002811115610ec957610ec86118c7565b5b0217905550610ed8818461164f565b600360003373ffffffffffffffffffffffffffffffffffffffff1673ffffffffffffffffffffffffffffffffffffffff1681526020019081526020016000208390806001815401808255809150506001900390600052602060002001600090919091909150556000826003015434610f50919061222d565b90506000811115610fa3573373ffffffffffffffffffffffffffffffffffffffff166108fc829081150290604051600060405180830381858888f19350505050158015610fa1573d6000803e3d6000fd5b505b7ff17a6666765db393a6218bb324c4de5cc60c9ee3b981bd102ba416effc13b89584338560030154604051610fda93929190612261565b60405180910390a150505050565b6000600160003373ffffffffffffffffffffffffffffffffffffffff1673ffffffffffffffffffffffffffffffffffffffff168152602001908152602001600020600001540361106d576040517f08c379a000000000000000000000000000000000000000000000000000000000815260040161106490612135565b60405180910390fd5b6000806000838152602001908152602001600020905060006002811115611097576110966118c7565b5b8160050160009054906101000a900460ff1660028111156110bb576110ba6118c7565b5b146110fb576040517f08c379a00000000000000000000000000000000000000000000000000000000081526004016110f2906121a1565b60405180910390fd5b80600401543414611141576040517f08c379a00000000000000000000000000000000000000000000000000000000081526004016111389061220d565b60405180910390fd5b8060010160009054906101000a900473ffffffffffffffffffffffffffffffffffffffff1673ffffffffffffffffffffffffffffffffffffffff166108fc82600401549081150290604051600060405180830381858888f193505050501580156111af573d6000803e3d6000fd5b5060028160050160006101000a81548160ff021916908360028111156111d8576111d76118c7565b5b021790555060008160040154346111ef919061222d565b90506000811115611242573373ffffffffffffffffffffffffffffffffffffffff166108fc829081150290604051600060405180830381858888f19350505050158015611240573d6000803e3d6000fd5b505b7fddf30198c8f217b33732c1d9c4f25fef5319d97880bd3b5f777aad155eb665998333846004015460405161127993929190612261565b60405180910390a1505050565b60016020528060005260406000206000915090508060000154908060010160009054906101000a900473ffffffffffffffffffffffffffffffffffffffff16905082565b6000600160003373ffffffffffffffffffffffffffffffffffffffff1673ffffffffffffffffffffffffffffffffffffffff168152602001908152602001600020600001540361134f576040517f08c379a000000000000000000000000000000000000000000000000000000000815260040161134690612135565b60405180910390fd5b6004600081548092919061136290611fa6565b9190505550600060045490506040518060c001604052808281526020013373ffffffffffffffffffffffffffffffffffffffff168152602001858152602001848152602001838152602001600060028111156113c1576113c06118c7565b5b8152506000808381526020019081526020016000206000820151816000015560208201518160010160006101000a81548173ffffffffffffffffffffffffffffffffffffffff021916908373ffffffffffffffffffffffffffffffffffffffff160217905550604082015181600201908161143c9190612444565b50606082015181600301556080820151816004015560a08201518160050160006101000a81548160ff0219169083600281111561147c5761147b6118c7565b5b0217905550905050600360003373ffffffffffffffffffffffffffffffffffffffff1673ffffffffffffffffffffffffffffffffffffffff1681526020019081526020016000208190806001815401808255809150506001900390600052602060002001600090919091909150557f22b99a3272fa80a918e3944e4068c14a49690c1c155f1b10e71ea0a36ebb84498133858560405161151f9493929190612516565b60405180910390a150505050565b6003602052816000526040600020818154811061154957600080fd5b90600052602060002001600091509150505481565b60006020528060005260406000206000915090508060000154908060010160009054906101000a900473ffffffffffffffffffffffffffffffffffffffff16908060020180546115ad9061201d565b80601f01602080910402602001604051908101604052809291908181526020018280546115d99061201d565b80156116265780601f106115fb57610100808354040283529160200191611626565b820191906000526020600020905b81548152906001019060200180831161160957829003601f168201915b5050505050908060030154908060040154908060050160009054906101000a900460ff16905086565b6000600360008473ffffffffffffffffffffffffffffffffffffffff1673ffffffffffffffffffffffffffffffffffffffff168152602001908152602001600020905060005b818054905081101561174d57828282815481106116b5576116b461204e565b5b9060005260206000200154036117405781600183805490506116d7919061222d565b815481106116e8576116e761204e565b5b90600052602060002001548282815481106117065761170561204e565b5b9060005260206000200181905550818054806117255761172461255b565b5b6001900381819060005260206000200160009055905561174d565b8080600101915050611695565b50505050565b6040518060c0016040528060008152602001600073ffffffffffffffffffffffffffffffffffffffff168152602001606081526020016000815260200160008152602001600060028111156117ab576117aa6118c7565b5b81525090565b600081519050919050565b600082825260208201905092915050565b6000819050602082019050919050565b6000819050919050565b6117f0816117dd565b82525050565b600073ffffffffffffffffffffffffffffffffffffffff82169050919050565b6000611821826117f6565b9050919050565b61183181611816565b82525050565b600081519050919050565b600082825260208201905092915050565b60005b83811015611871578082015181840152602081019050611856565b60008484015250505050565b6000601f19601f8301169050919050565b600061189982611837565b6118a38185611842565b93506118b3818560208601611853565b6118bc8161187d565b840191505092915050565b7f4e487b7100000000000000000000000000000000000000000000000000000000600052602160045260246000fd5b60038110611907576119066118c7565b5b50565b6000819050611918826118f6565b919050565b60006119288261190a565b9050919050565b6119388161191d565b82525050565b600060c08301600083015161195660008601826117e7565b5060208301516119696020860182611828565b5060408301518482036040860152611981828261188e565b915050606083015161199660608601826117e7565b5060808301516119a960808601826117e7565b5060a08301516119bc60a086018261192f565b508091505092915050565b60006119d3838361193e565b905092915050565b6000602082019050919050565b60006119f3826117b1565b6119fd81856117bc565b935083602082028501611a0f856117cd565b8060005b85811015611a4b5784840389528151611a2c85826119c7565b9450611a37836119db565b925060208a01995050600181019050611a13565b50829750879550505050505092915050565b60006020820190508181036000830152611a7781846119e8565b905092915050565b6000604051905090565b600080fd5b600080fd5b611a9c816117dd565b8114611aa757600080fd5b50565b600081359050611ab981611a93565b92915050565b600060208284031215611ad557611ad4611a89565b5b6000611ae384828501611aaa565b91505092915050565b600060c083016000830151611b0460008601826117e7565b506020830151611b176020860182611828565b5060408301518482036040860152611b2f828261188e565b9150506060830151611b4460608601826117e7565b506080830151611b5760808601826117e7565b5060a0830151611b6a60a086018261192f565b508091505092915050565b60006020820190508181036000830152611b8f8184611aec565b905092915050565b6000611ba2826117f6565b9050919050565b611bb281611b97565b82525050565b6000602082019050611bcd6000830184611ba9565b92915050565b611bdc81611b97565b8114611be757600080fd5b50565b600081359050611bf981611bd3565b92915050565b600060208284031215611c1557611c14611a89565b5b6000611c2384828501611bea565b91505092915050565b60008115159050919050565b611c4181611c2c565b82525050565b611c50816117dd565b82525050565b6000604082019050611c6b6000830185611c38565b611c786020830184611c47565b9392505050565b6000604082019050611c946000830185611c47565b611ca16020830184611ba9565b9392505050565b600080fd5b600080fd5b7f4e487b7100000000000000000000000000000000000000000000000000000000600052604160045260246000fd5b611cea8261187d565b810181811067ffffffffffffffff82111715611d0957611d08611cb2565b5b80604052505050565b6000611d1c611a7f565b9050611d288282611ce1565b919050565b600067ffffffffffffffff821115611d4857611d47611cb2565b5b611d518261187d565b9050602081019050919050565b82818337600083830152505050565b6000611d80611d7b84611d2d565b611d12565b905082815260208101848484011115611d9c57611d9b611cad565b5b611da7848285611d5e565b509392505050565b600082601f830112611dc457611dc3611ca8565b5b8135611dd4848260208601611d6d565b91505092915050565b600080600060608486031215611df657611df5611a89565b5b600084013567ffffffffffffffff811115611e1457611e13611a8e565b5b611e2086828701611daf565b9350506020611e3186828701611aaa565b9250506040611e4286828701611aaa565b9150509250925092565b60008060408385031215611e6357611e62611a89565b5b6000611e7185828601611bea565b9250506020611e8285828601611aaa565b9150509250929050565b6000602082019050611ea16000830184611c47565b92915050565b611eb081611816565b82525050565b600082825260208201905092915050565b6000611ed282611837565b611edc8185611eb6565b9350611eec818560208601611853565b611ef58161187d565b840191505092915050565b611f098161191d565b82525050565b600060c082019050611f246000830189611c47565b611f316020830188611ea7565b8181036040830152611f438187611ec7565b9050611f526060830186611c47565b611f5f6080830185611c47565b611f6c60a0830184611f00565b979650505050505050565b7f4e487b7100000000000000000000000000000000000000000000000000000000600052601160045260246000fd5b6000611fb1826117dd565b91507fffffffffffffffffffffffffffffffffffffffffffffffffffffffffffffffff8203611fe357611fe2611f77565b5b600182019050919050565b7f4e487b7100000000000000000000000000000000000000000000000000000000600052602260045260246000fd5b6000600282049050600182168061203557607f821691505b60208210810361204857612047611fee565b5b50919050565b7f4e487b7100000000000000000000000000000000000000000000000000000000600052603260045260246000fd5b7f5573657220616c72656164792072656769737465726564000000000000000000600082015250565b60006120b3601783611eb6565b91506120be8261207d565b602082019050919050565b600060208201905081810360008301526120e2816120a6565b9050919050565b7f55736572206e6f74207265676973746572656400000000000000000000000000600082015250565b600061211f601383611eb6565b915061212a826120e9565b602082019050919050565b6000602082019050818103600083015261214e81612112565b9050919050565b7f50726f7065727479206e6f7420617661696c61626c6500000000000000000000600082015250565b600061218b601683611eb6565b915061219682612155565b602082019050919050565b600060208201905081810360008301526121ba8161217e565b9050919050565b7f496e636f7272656374207061796d656e7420616d6f756e740000000000000000600082015250565b60006121f7601883611eb6565b9150612202826121c1565b602082019050919050565b60006020820190508181036000830152612226816121ea565b9050919050565b6000612238826117dd565b9150612243836117dd565b925082820390508181111561225b5761225a611f77565b5b92915050565b60006060820190506122766000830186611c47565b6122836020830185611ba9565b6122906040830184611c47565b949350505050565b60008190508160005260206000209050919050565b60006020601f8301049050919050565b600082821b905092915050565b6000600883026122fa7fffffffffffffffffffffffffffffffffffffffffffffffffffffffffffffffff826122bd565b61230486836122bd565b95508019841693508086168417925050509392505050565b6000819050919050565b600061234161233c612337846117dd565b61231c565b6117dd565b9050919050565b6000819050919050565b61235b83612326565b61236f61236782612348565b8484546122ca565b825550505050565b600090565b612384612377565b61238f818484612352565b505050565b5b818110156123b3576123a860008261237c565b600181019050612395565b5050565b601f8211156123f8576123c981612298565b6123d2846122ad565b810160208510156123e1578190505b6123f56123ed856122ad565b830182612394565b50505b505050565b600082821c905092915050565b600061241b600019846008026123fd565b1980831691505092915050565b6000612434838361240a565b9150826002028217905092915050565b61244d82611837565b67ffffffffffffffff81111561246657612465611cb2565b5b612470825461201d565b61247b8282856123b7565b600060209050601f8311600181146124ae576000841561249c578287015190505b6124a68582612428565b86555061250e565b601f1984166124bc86612298565b60005b828110156124e4578489015182556001820191506020850194506020810190506124bf565b8683101561250157848901516124fd601f89168261240a565b8355505b6001600288020188555050505b505050505050565b600060808201905061252b6000830187611c47565b6125386020830186611ba9565b6125456040830185611c47565b6125526060830184611c47565b95945050505050565b7f4e487b7100000000000000000000000000000000000000000000000000000000600052603160045260246000fdfea2646970667358221220c9978debd0c3e8d8347abf45224a7393ada10773fe78b7914fea30321860978c64736f6c63430008180033",
  "linkReferences": {},
  "deployedLinkReferences": {}
}